:020000040800F2
:1000000000000220F543000815120008171200082E
:10001000191200081B1200081D1200080000000041
:100020000000000000000000000000001F12000897
:100030002112000800000000231200082512000809
:10004000454400084544000845440008454400086C
:10005000454400084544000845440008454400085C
:10006000454400084544000845440008454400084C
:10007000454400084544000845440008454400083C
:100080004544000845440008454400082D12000876
:100090003D12000845440008454400084544000856
:1000A000454400084544000845440008454400080C
:1000B00045440008454400084544000845440008FC
:1000C000454400084D1200085D1200084544000830
:1000D000454400086D1200084544000845440008E6
:1000E00045440008454400084544000845440008CC
:1000F00045440008454400084544000845440008BC
:1001000045440008454400084544000845440008AB
:10011000454400084544000845440008454400089B
:10012000454400084544000845440008454400088B
:10013000454400084544000845440008454400087B
:10014000454400084544000845440008454400086B
:10015000454400084544000845440008454400085B
:10016000454400084544000845440008454400084B
:1001700045440008454400084544000800000000CC
:08018000454400084544000855
:1001900010B5054C237833B9044B13B10448AFF3C1
:1001A00000800123237010BD7400002000000000B7
:1001B0002455000808B5034B1BB103490348AFF3AE
:1001C000008008BD000000007800002024550008D1
:1001D00001F0FF01102A2BDB10F0070F08D010F8F8
:1001E000013B013A8B422DD010F0070F42B3F6D1FC
:1001F000F0B441EA012141EA014122F007047FF015
:1002000000070023F0E80256083C85EA010586EA6B
:10021000010685FA47F5A3FA87F586FA47F6A5FAA7
:1002200087F68EB9EED1F0BC01F0FF0102F00702B3
:1002300032B110F8013B013A83EA010313B1F8D15E
:100240000020704701387047002D06BF354603383F
:10025000073815F0010F07D1013015F4807F02BF78
:10026000013015F4C03F0130F0BC0138704700BFC9
:1002700081F0004102E000BF83F0004330B54FEA57
:1002800041044FEA430594EA050F08BF90EA020FC4
:100290001FBF54EA000C55EA020C7FEA645C7FEA57
:1002A000655C00F0E2804FEA5454D4EB5555B8BF7A
:1002B0006D420CDD2C4480EA020281EA030382EAEB
:1002C000000083EA010180EA020281EA0303362D7D
:1002D00088BF30BD11F0004F4FEA01314FF4801C50
:1002E0004CEA113102D0404261EB410113F0004F62
:1002F0004FEA03334CEA133302D0524263EB430319
:1003000094EA050F00F0A780A4F10104D5F1200EB6
:100310000DDB02FA0EFC22FA05F2801841F1000111
:1003200003FA0EF2801843FA05F359410EE0A5F1E5
:1003300020050EF1200E012A03FA0EFC28BF4CF016
:10034000020C43FA05F3C01851EBE37101F00045CC
:1003500007D54FF0000EDCF1000C7EEB00006EEBD9
:100360000101B1F5801F1BD3B1F5001F0CD3490863
:100370005FEA30004FEA3C0C04F101044FEA4452BA
:1003800012F5800F80F09A80BCF1004F08BF5FEA41
:10039000500C50F1000041EB045141EA050130BD21
:1003A0005FEA4C0C404141EB0101013C28BFB1F533
:1003B000801FE9D291F0000F04BF01460020B1FA7E
:1003C00081F308BF2033A3F10B03B3F120020CDA51
:1003D0000C3208DD02F1140CC2F10C0201FA0CF02F
:1003E00021FA02F10CE002F11402D8BFC2F1200C94
:1003F00001FA02F120FA0CFCDCBF41EA0C0190404A
:10040000E41AA2BF01EB0451294330BD6FEA040492
:100410001F3C1CDA0C340EDC04F11404C4F120027D
:1004200020FA04F001FA02F340EA030021FA04F38F
:1004300045EA030130BDC4F10C04C4F1200220FAE6
:1004400002F001FA04F340EA0300294630BD21FA24
:1004500004F0294630BD94F0000F83F4801306BFEA
:1004600081F480110134013D4EE77FEA645C18BFDE
:100470007FEA655C29D094EA050F08BF90EA020F75
:1004800005D054EA000C04BF1946104630BD91EA6D
:10049000030F1EBF0021002030BD5FEA545C05D170
:1004A0004000494128BF41F0004130BD14F58004AF
:1004B0003CBF01F5801130BD01F0004545F0FE4123
:1004C00041F470014FF0000030BD7FEA645C1ABF58
:1004D000194610467FEA655C1CBF0B46024650EA8F
:1004E000013406BF52EA033591EA030F41F40021BB
:1004F00030BD00BF90F0000F04BF0021704730B541
:100500004FF4806404F132044FF000054FF0000115
:1005100050E700BF90F0000F04BF0021704730B5D6
:100520004FF4806404F1320410F0004548BF4042AB
:100530004FF000013EE700BF42004FEAE2014FEA00
:1005400031014FEA02701FBF12F07F4393F07F4FDB
:1005500081F06051704732F07F4208BF704793F0DE
:100560007F4F04BF41F40021704730B54FF46074F1
:1005700001F0004521F000411CE700BF50EA0102F4
:1005800008BF704730B54FF000050AE050EA01029D
:1005900008BF704730B511F0004502D5404261EB0D
:1005A00041014FF4806404F132045FEA915C3FF44E
:1005B000D8AE4FF003025FEADC0C18BF03325FEAEB
:1005C000DC0C18BF033202EBDC02C2F1200300FA9C
:1005D00003FC20FA02F001FA03FE40EA0E0021FAC1
:1005E00002F11444BDE600BF70B54FF0FF0C4CF4AF
:1005F000E06C1CEA11541DBF1CEA135594EA0C0F61
:1006000095EA0C0F00F0DEF82C4481EA030621EA9B
:100610004C5123EA4C5350EA013518BF52EA0335D6
:1006200041F4801143F4801338D0A0FB02CE4FF088
:100630000005E1FB02E506F00042E0FB03E54FF0B8
:100640000006E1FB03569CF0000F18BF4EF0010EB0
:10065000A4F1FF04B6F5007F64F5407404D25FEAAC
:100660004E0E6D4146EB060642EAC62141EA55515F
:100670004FEAC52040EA5E504FEACE2EB4F1FD0CA1
:1006800088BFBCF5E06F1ED8BEF1004F08BF5FEA1F
:10069000500E50F1000041EB045170BD06F00046D1
:1006A00046EA010140EA020081EA0301B4EB5C047E
:1006B000C2BFD4EB0C0541EA045170BD41F4801176
:1006C0004FF0000E013C00F3AB8014F1360FDEBF9B
:1006D000002001F0004170BDC4F10004203C35DA77
:1006E0000C341BDC04F11404C4F1200500FA05F3FA
:1006F00020FA04F001FA05F240EA020001F000429B
:1007000021F0004110EBD37021FA04F642EB060110
:100710005EEA430E08BF20EAD37070BDC4F10C043A
:10072000C4F1200500FA04F320FA05F001FA04F2FE
:1007300040EA020001F0004110EBD37041F10001EA
:100740005EEA430E08BF20EAD37070BDC4F12005F5
:1007500000FA05F24EEA020E20FA04F301FA05F25D
:1007600043EA020321FA04F001F0004121FA04F205
:1007700020EA020000EBD3705EEA430E08BF20EAD5
:10078000D37070BD94F0000F0FD101F0004640000F
:1007900041EB010111F4801F08BF013CF7D041EA91
:1007A000060195F0000F18BF704703F00046520095
:1007B00043EB030313F4801F08BF013DF7D043EA66
:1007C0000603704794EA0C0F0CEA135518BF95EA1C
:1007D0000C0F0CD050EA410618BF52EA4306D1D1A3
:1007E00081EA030101F000414FF0000070BD50EAC2
:1007F000410606BF1046194652EA430619D094EA4C
:100800000C0F02D150EA013613D195EA0C0F05D135
:1008100052EA03361CBF104619460AD181EA030189
:1008200001F0004141F0FE4141F470014FF0000041
:1008300070BD41F0FE4141F4780170BD70B54FF0DC
:10084000FF0C4CF4E06C1CEA11541DBF1CEA13555C
:1008500094EA0C0F95EA0C0F00F0A7F8A4EB05043E
:1008600081EA030E52EA03354FEA013100F0888035
:100870004FEA03334FF0805545EA131343EA1263FE
:100880004FEA022245EA111545EA10654FEA0026B3
:100890000EF000419D4208BF964244F1FD0404F56C
:1008A000407402D25B084FEA3202B61A65EB0305C8
:1008B0005B084FEA32024FF480104FF4002CB6EB85
:1008C000020E75EB030E22BFB61A754640EA0C0005
:1008D0005B084FEA3202B6EB020E75EB030E22BF45
:1008E000B61A754640EA5C005B084FEA3202B6EB86
:1008F000020E75EB030E22BFB61A754640EA9C0045
:100900005B084FEA3202B6EB020E75EB030E22BF14
:10091000B61A754640EADC0055EA060E18D04FEAD2
:10092000051545EA16754FEA06164FEAC30343EA72
:1009300052734FEAC2025FEA1C1CC0D111F4801F3F
:100940000BD141EA00014FF000004FF0004CB6E738
:1009500011F4801F04BF01430020B4F1FD0C88BFD7
:10096000BCF5E06F3FF6AFAEB5EB030C04BFB6EBE2
:10097000020C5FEA500C50F1000041EB045170BDD5
:100980000EF0004E4EEA113114EB5C04C2BFD4EB02
:100990000C0541EA045170BD41F480114FF0000E86
:1009A000013C90E645EA060E8DE60CEA135594EA02
:1009B0000C0F08BF95EA0C0F3FF43BAF94EA0C0F05
:1009C0000AD150EA01347FF434AF95EA0C0F7FF47A
:1009D00025AF104619462CE795EA0C0F06D152EACE
:1009E00003353FF4FDAE1046194622E750EA4106B2
:1009F00018BF52EA43067FF4C5AE50EA41047FF4C3
:100A00000DAF52EA43057FF4EBAE12E74FEA410225
:100A100012F5001215D211D56FF47873B3EB625250
:100A200012D94FEAC12343F0004343EA505311F077
:100A3000004F23FA02F018BF404270474FF0000009
:100A4000704750EA013005D111F0004008BF6FF047
:100A5000004070474FF00000704700BF53B94AB9DB
:100A6000002908BF00281CBF4FF0FF314FF0FF30B6
:100A700000F074B9ADF1080C6DE904CE00F006F891
:100A8000DDF804E0DDE9022304B070472DE9F0470A
:100A9000089D04468E46002B4DD18A42944669D962
:100AA000B2FA82F252B101FA02F3C2F1200120FA45
:100AB00001F10CFA02FC41EA030E94404FEA1C4893
:100AC000210CBEFBF8F61FFA8CF708FB16E341EA8F
:100AD000034306FB07F199420AD91CEB030306F115
:100AE000FF3080F01F81994240F21C81023E634436
:100AF0005B1AA4B2B3FBF8F008FB103344EA0344DA
:100B000000FB07F7A7420AD91CEB040400F1FF33EE
:100B100080F00A81A74240F207816444023840EA2B
:100B20000640E41B00261DB1D4400023C5E9004364
:100B30003146BDE8F0878B4209D9002D00F0EF80E7
:100B40000026C5E9000130463146BDE8F087B3FA1A
:100B500083F6002E4AD18B4202D3824200F2F98002
:100B6000841A61EB030301209E46002DE0D0C5E905
:100B7000004EDDE702B9FFDEB2FA82F2002A40F051
:100B80009280A1EB0C014FEA1C471FFA8CFE012654
:100B9000200CB1FBF7F307FB131140EA01410EFBF8
:100BA00003F0884208D91CEB010103F1FF3802D29F
:100BB000884200F2CB804346091AA4B2B1FBF7F099
:100BC00007FB101144EA01440EFB00FEA64508D9BC
:100BD0001CEB040400F1FF3102D2A64500F2BB80F9
:100BE0000846A4EB0E0440EA03409CE7C6F1200748
:100BF000B34022FA07FC4CEA030C20FA07F401FA8E
:100C000006F31C43F9404FEA1C4900FA06F3B1FB16
:100C1000F9F8200C1FFA8CFE09FB181140EA01417B
:100C200008FB0EF0884202FA06F20BD91CEB010118
:100C300008F1FF3A80F08880884240F28580A8F170
:100C400002086144091AA4B2B1FBF9F009FB1011C2
:100C500044EA014100FB0EFE8E4508D91CEB010160
:100C600000F1FF346CD28E456AD90238614440EA03
:100C70000840A0FB0294A1EB0E01A142C846A64683
:100C800056D353D05DB1B3EB080261EB0E0101FA0C
:100C900007F722FA06F3F1401F43C5E90071002669
:100CA0003146BDE8F087C2F12003D8400CFA02FCBF
:100CB00021FA03F3914001434FEA1C471FFA8CFECF
:100CC000B3FBF7F007FB10360B0C43EA064300FBBF
:100CD0000EF69E4204FA02F408D91CEB030300F15D
:100CE000FF382FD29E422DD9023863449B1B89B214
:100CF000B3FBF7F607FB163341EA034106FB0EF39D
:100D00008B4208D91CEB010106F1FF3816D28B4249
:100D100014D9023E6144C91A46EA004638E72E4615
:100D2000284605E70646E3E61846F8E64B45A9D20D
:100D3000B9EB020864EB0C0E0138A3E74646EAE77C
:100D4000204694E74046D1E7D0467BE7023B61442A
:100D500032E7304609E76444023842E7704700BF93
:100D600030B52DED028B87B000230493ADF814301D
:100D700007E0304AD15C03F118026A4402F8081C0B
:100D80000133052BF5DD9DF810309DF8111041EA77
:100D9000032109B2284801809DF812309DF81320E4
:100DA00042EA032212B242809DF814409DF81530A9
:100DB00043EA04231BB2838007EE901AF8EEE77A29
:100DC000DFED1E6A87EEA67A1D4981ED007A07EEF7
:100DD000902AF8EEE77A87EEA68A81ED018A07EE7F
:100DE000903AF8EEE77AF2EE046AC7EEA68AC1ED11
:100DF000028A17EE100AFFF79FFB04460D4618EE15
:100E0000900AFFF799FBCDE9020118EE100AFFF7EF
:100E100093FBCDE9000122462B460A4803F040FB34
:100E200006220449084801F01FFE07B0BDEC028B02
:100E300030BD00BFB0000020A80000200000C84264
:100E40009C0000203C5500080C0400202DE9F041D6
:100E500082B03F4B93ED027ADFED3E7A27EE277AA0
:100E6000DFED3D6AC7EE267AFDEEE77A17EE902AAF
:100E700014B23A4E34801868FFF75EFB0022384BFC
:100E8000FFF7FCF90022374BFFF7AEFB0022364B91
:100E9000FFF7D4FCFFF7BAFD7080DFF8E480D8F8E4
:100EA0000030324D6B602B6E4FF4005107EE904ACC
:100EB000B8EEE70A284698472B6B2D4C6360236EEB
:100EC0002C4FB7F9002000EE102A0021B8EEC00A1E
:100ED00020469847D8F80430AB66D5F8C430B6F948
:100EE000022000EE102A4FF40051B8EEC00A05F1BE
:100EF00064009847D5F89430A366D4F8C430B7F9A5
:100F0000302000EE102A0021B8EEC00A04F164007F
:100F10009847D4ED0C7A94ED257ABDEEC77AFDEEB4
:100F2000E77A0023009317EE102A12B217EE901AF8
:100F300009B2114803F02EFAB6F90220B98F0F4812
:100F400003F0AEFA012000F0F9FE02B0BDE8F08136
:100F50009C000020000000460000B44398000020E0
:100F6000008066400000C04000807640B80000204D
:100F700050020020A8040020E40300204855000887
:100F80009000002072B6FEE700B595B03022002137
:100F900008A803F07DFA00230393049305930693B6
:100FA000079301931F4A116C41F080511164126C38
:100FB00002F080520192019A02931B4A116841F497
:100FC00080411160126802F480420292029A022269
:100FD000089201210B9110210C910E920F9308237E
:100FE0001093A823119312920423139308A800F0DE
:100FF00061F998B90F230393022304930023059307
:101000004FF4A05306934FF480530793052103A890
:1010100000F09EFB20B915B05DF804FBFFF7B2FFAE
:10102000FFF7B0FF00380240007000402DE9804813
:1010300085B000F057FEFFF7A7FF02F055FE02F063
:10104000B1FE02F085FF02F01FFF5C4C204600F06D
:10105000D9FF204603F0EAF80221204601F023F9E7
:10106000574E304603F0D4F8B56D9FED568A4FF4D5
:10107000FA58CDF80880002401940094F0EE481A44
:101080009FED511ADFED510AB0EE480A41F2883364
:101090004F4A128801213046A8474E4D284603F09A
:1010A000B7F802944FF47A69CDF804900094F0EE0A
:1010B000481A9FED491ADFED490AB0EE480A4FF48D
:1010C00096731A4601212846AF6DB847DFF840A154
:1010D000504603F09DF80294CDF804900094F8EE89
:1010E000081A9FED3F1ADFED3F0AB0EE480A4FF4B1
:1010F00096731A4601215046DAF85870B84706F13F
:10110000640B584603F084F8D6F8BC60CDF808802C
:1011100001940094F0EE481A9FED331ADFED330A84
:10112000B0EE480A41F28833294A12880121584614
:10113000B04705F16406304603F06AF8D5F8BC50B4
:101140000294CDF804900094DFED291A9FED291A3E
:10115000DFED290AB0EE480A4FF4FA731A4601216E
:101160003046A8470AF16405284603F051F8DAF83A
:10117000BC600294CDF804900094F2EE041AB0EE34
:10118000481AF6EE000AB0EE480A4FF496731A4673
:1011900001212846B047194803F008FA06221849E9
:1011A000184801F061FCFFF751FE174A136801333C
:1011B0001360164A136801331360F4E7E403002058
:1011C00050020020000000001B742B3FDADC754247
:1011D00000000020800100209052A23BC286AF3F59
:1011E000A69B44BB666666BFFD3A42409065804060
:1011F000E96A3241419A313C41BCA23F5055000856
:10120000B00000200C040020480200204C02002006
:10121000B8000020FEE7FEE7FEE7FEE7FEE77047C6
:101220007047704708B500F077FD08BD08B5024863
:1012300001F056F808BD00BFE403002008B50248DD
:1012400001F04EF808BD00BFE403002008B50248D5
:1012500002F038F908BD00BF0C04002008B50248B0
:1012600002F000FA08BD00BF0C04002008B50248D7
:1012700002F0FAFB08BD00BF6004002082B000212C
:1012800000910B4B5A6C42F480425A645A6C02F43F
:1012900080420092009A01911A6C42F080521A64C6
:1012A0001B6C03F080530193019B02B0704700BF99
:1012B00000380240002800F0E08170B582B004469A
:1012C000036813F0010F3BD09F4B9B6803F00C03A6
:1012D000042B2CD09C4B9B6803F00C03082B21D0D3
:1012E0006368B3F5803F4FD0B3F5A02F52D0964B33
:1012F0001A6822F480321A601A6822F480221A6076
:101300006368002B50D000F013FD05468E4B1B6820
:1013100013F4003F14D100F00BFD401B6428F5D9F5
:101320000320B1E1884B5B6813F4800FD8D0864B63
:101330001B6813F4003F03D06368002B00F09F810B
:10134000236813F0020F54D07F4B9B6813F00C0FEF
:101350003ED07D4B9B6803F00C03082B33D0E36831
:10136000002B68D0794B01221A6000F0E1FC0546A1
:10137000754B1B6813F0020F54D100F0D9FC401BD1
:101380000228F5D903207FE16F4A136843F48033C4
:101390001360B5E76C4B1A6842F480221A601A6831
:1013A00042F480321A60ABE700F0C2FC0546664B9F
:1013B0001B6813F4003FC3D000F0BAFC401B642844
:1013C000F5D9032060E1604B5B6813F4800FC6D150
:1013D0005D4B1B6813F0020F03D0E368012B40F054
:1013E0005081594A136823F0F803216943EAC10385
:1013F0001360236813F0080F42D063696BB3534B3B
:101400000122C3F8802E00F093FC05464E4B5B6F23
:1014100013F0020F34D100F08BFC401B0228F5D9E9
:10142000032031E1484A136823F0F803216943EAB5
:10143000C1031360DDE7454B00221A6000F078FC21
:101440000546414B1B6813F0020FD2D000F070FC30
:10145000401B0228F5D9032016E13C4B0022C3F8BB
:10146000802E00F065FC0546374B5B6F13F0020FD2
:1014700006D000F05DFC401B0228F5D9032003E1F3
:10148000236813F0040F77D02F4B1B6C13F0805F91
:1014900033D1002301932C4B1A6C42F080521A6412
:1014A0001B6C03F080530193019B0125284B1B68A3
:1014B00013F4807F23D0A368012B34D0052B38D0C0
:1014C000214B1A6F22F001021A671A6F22F00402F0
:1014D0001A67A368002B3DD000F02AFC06461A4B81
:1014E0001B6F13F0020F46D100F022FC801B41F26B
:1014F00088339842F3D90320C6E00025D6E7144A82
:10150000136843F48073136000F012FC0646104B1E
:101510001B6813F4807FCED100F00AFC801B0228E8
:10152000F5D90320B0E0084A136F43F001031367B5
:10153000CFE7054B1A6F42F004021A671A6F42F0A8
:1015400001021A67C5E700BF0038024000004742A9
:101550000070004000F0ECFB0646524B1B6F13F08E
:10156000020F08D000F0E4FB801B41F28833984260
:10157000F3D9032088E0EDB9A369002B00F0838044
:10158000484A926802F00C02082A51D0022B17D068
:10159000454B00221A6600F0CBFB0446414B1B680A
:1015A00013F0007F42D000F0C3FB001B0228F5D9E6
:1015B000032069E03B4A136C23F080531364DBE79C
:1015C000394B00221A6600F0B3FB0546354B1B6809
:1015D00013F0007F06D000F0ABFB401B0228F5D9CA
:1015E000032051E0E369226A1343626A43EA8213EB
:1015F000A26A5208013A43EA0243E26A43EA0263FA
:10160000284A5360284B01221A6600F091FB0446D9
:10161000244B1B6813F0007F06D100F089FB001BF0
:101620000228F5D903202FE000202DE000202BE038
:10163000012B2BD01B4B5B6803F48001E2699142C4
:1016400026D103F03F02216A8A4223D1616A47F61C
:10165000C0721A40B2EB811F1ED103F44031A26A5E
:101660005208013AB1EB024F18D103F07063E26AFD
:10167000B3EB026F14D1002006E001207047012077
:1016800002E0012000E0002002B070BD0120FBE775
:101690000120F9E70120F7E70120F5E70120F3E752
:1016A0000120F1E7003802400000474208B5254B11
:1016B0009B6803F00C03042B3FD0082B3FD1214B38
:1016C0005A6802F03F025B6813F4800F12D01D4B82
:1016D0005968C1F388111C480023A1FB0001FFF7E2
:1016E000BDF9184B5B68C3F3014301335B00B0FBEA
:1016F000F3F025E0134B5968C1F3881C4FEA4C11F5
:10170000B1EB0C006EEB0E0E4FEA8E1343EA9063C2
:101710008101091A63EB0E03DB0043EA5173C90030
:1017200011EB0C0C43F10003990200234FEA8C20CB
:1017300041EA9C51FFF792F9D3E7034800E00348E0
:1017400008BD00BF00380240001BB7000024F400B1
:10175000002800F09B8070B50D4604464F4B1B6877
:1017600003F007038B4208D2CBB24C4A13701368C4
:1017700003F007038B4240F08B80236813F0020FC5
:1017800017D013F0040F04D0454A936843F4E05394
:101790009360236813F0080F04D0414A936843F420
:1017A000604393603E4A936823F0F003A1680B43C3
:1017B0009360236813F0010F32D06368012B21D0AE
:1017C0009A1E012A25D9364A126812F0020F61D0FA
:1017D00033498A6822F0030213438B6000F0A8FAB1
:1017E00006462F4B9B6803F00C036268B3EB820F35
:1017F00016D000F09DFA801B41F288339842F0D950
:10180000032042E0264A126812F4003FE0D1012092
:101810003BE0234A126812F0007FD9D1012034E066
:101820001E4B1B6803F00703AB4207D9EAB21B4B00
:101830001A701B6803F00703AB422DD1236813F025
:10184000040F06D0164A936823F4E053E1680B4373
:101850009360236813F0080F07D0114A936823F4AC
:101860006043216943EAC1039360FFF71FFF0C4BFC
:101870009B68C3F303130B4AD35CD8400A4B186030
:101880000A4B186800F008FA002070BD012070476C
:101890000120FAE70120F8E70120F6E7003C0240CA
:1018A00000380240745500080C0000200800002099
:1018B000014B1868704700BF0C00002008B5FFF707
:1018C000F7FF044B9B68C3F38223034AD35CD840E1
:1018D00008BD00BF003802408455000808B5FFF776
:1018E000E7FF044B9B68C3F34233034AD35CD84001
:1018F00008BD00BF003802408455000800230F2BAC
:1019000000F2E48070B582B060E085685E00032478
:10191000B44025EA0405CC68B4402C438460456893
:1019200025EA02054C68C4F300129A402A4342603B
:101930005AE0DC08083450F8246003F007029500F0
:101940000F22AA4026EA020E0A69AA4042EA0E02C3
:1019500040F824205CE0072200E0002202FA0EF2A8
:101960002A4302345A4D45F824205A4A94686FEAB3
:101970000C0224EA0C054E6816F4801F01D04CEAD4
:101980000405544CA560E46802EA04054E6816F4A8
:10199000001F01D04CEA04054E4CE560646802EA81
:1019A00004054E6816F4003F01D04CEA0405494C8A
:1019B0006560246822404D6815F4803F01D04CEAF0
:1019C0000402444C226001330F2B7DD801229A403F
:1019D0000C6804EA020C32EA0404F4D14C6804F006
:1019E0000304013C012C90D94A6802F00302032A47
:1019F00009D0C4685D000322AA4024EA02048A6870
:101A0000AA402243C2604A6802F00302022A90D030
:101A100004684FEA430E032202FA0EF224EA02049B
:101A20004A6802F0030202FA0EF2224302604A6898
:101A300012F4403FC7D000220192274A546C44F46C
:101A400080445464526C02F480420192019A9C08D2
:101A5000A51C1F4A52F8255003F003024FEA820EDC
:101A60000F2202FA0EF225EA02051C4A90423FF4C8
:101A700074AF02F5806290421AD002F58062904203
:101A800018D002F58062904216D002F58062904232
:101A900014D002F58062904212D002F5806290422A
:101AA00010D002F5806290423FF455AF082255E70E
:101AB000012253E7022251E703224FE704224DE7B8
:101AC00005224BE7062249E702B070BD704700BF10
:101AD00000380140003C0140003802400000024054
:101AE0000AB181617047090481617047436901EA65
:101AF000030221EA030141EA02418161704770B5A6
:101B00000446866D00F014F994F83530DBB2022BF0
:101B100006D080236365002384F83430012070BD33
:101B200005462268136823F0160313602268536980
:101B300023F080035361236CE3B12268136823F020
:101B4000080313602268136823F0010313602368FD
:101B50001B6813F0010F11D000F0EAF8431B052BAE
:101B6000F5D920236365032084F83500002384F829
:101B70003430D4E7A36C002BDFD1E3E7E26D3F23E1
:101B80009340B360012384F83530002084F834009A
:101B9000C5E790F83530DBB2022B03D080234365D4
:101BA00001207047052380F835300268136823F060
:101BB000010313600020704790F835007047000063
:101BC000074AD36823F4E0631B041B0C000200F4F3
:101BD000E060034343F0BF6343F40033D3607047D6
:101BE00000ED00E000B5194BDB68C3F30223C3F13D
:101BF000070CBCF1040F28BF4FF0040C03F1040ED6
:101C0000BEF1060F18D9033B4FF0FF3E0EFA0CFC55
:101C100021EA0C0199400EFA03F322EA0303194367
:101C200000280BDB0901C9B200F1604000F56140FA
:101C300080F800135DF804FB0023E5E700F00F00D7
:101C40000901C9B2024B1954F4E700BF00ED00E0EE
:101C500014ED00E0002807DB00F01F02400901231B
:101C60009340024A42F82030704700BF00E100E094
:101C70000138B0F1807F0BD24FF0E0235861054A64
:101C8000F02182F823100020986107221A61704722
:101C90000120704700ED00E010B504460E4B1878A7
:101CA0004FF47A73B3FBF0F30C4A1068B0FBF3F017
:101CB000FFF7DEFF68B90F2C01D901200AE00022EE
:101CC00021464FF0FF30FFF78DFF054B1C600020D1
:101CD00000E0012010BD00BF040000200C00002027
:101CE0000800002008B50B4B1A6842F400721A6015
:101CF0001A6842F480621A601A6842F480721A60AC
:101D00000320FFF75DFF0020FFF7C6FFFFF7B6FADD
:101D1000002008BD003C0240034A1168034B1B78B9
:101D20000B441360704700BFE00300200400002054
:101D3000014B1868704700BFE003002038B5044627
:101D4000FFF7F6FF0546B4F1FF3F02D0044B1B78C6
:101D50001C44FFF7EDFF401BA042FAD338BD00BF83
:101D600004000020054BD3F8882042F47002C3F829
:101D700088204FF000629A60704700BF00ED00E0DD
:101D8000002800F0A18038B5044690F82030D3B187
:101D90002268136843F001031360FFF7C9FF05468B
:101DA00023685A6812F0010F10D1FFF7C1FF401BE2
:101DB0000A28F5D9636A43F400336362052384F883
:101DC0002030012038BD02F00FF8E1E71A6822F058
:101DD00002021A60FFF7ACFF054623685A6812F04A
:101DE000020F0DD0FFF7A4FF401B0A28F5D9636A44
:101DF00043F400336362052384F820300120E1E7D7
:101E0000227E012A3DD01A6822F080021A60637E89
:101E1000012B3BD02268136823F040031360A37E9C
:101E2000012B39D02268136823F020031360E37E6E
:101E3000012B37D02268136843F010031360237F0F
:101E4000012B35D02268136823F008031360637FE9
:101E5000012B33D02268136823F004031360A368B6
:101E6000E268134322691343626913436268013ACB
:101E700021681343CB6100206062012384F8203085
:101E8000A0E71A6842F080021A60C0E7226813686F
:101E900043F040031360C2E72268136843F0200355
:101EA0001360C4E72268136823F010031360C6E7C9
:101EB0002268136843F008031360C8E722681368B8
:101EC00043F004031360CAE70120704790F8203004
:101ED000013BDBB2012B05D9436A43F48023436203
:101EE0000120704730B5464BD3F8002242F0010282
:101EF000C3F80022D3F8002222F47C52C3F8002257
:101F0000D3F80022486A42EA0022C3F800224A6954
:101F100002F01F02012000FA02F2D3F81C026FEA5D
:101F2000020C20EA0200C3F81C02CB69C3B9344B8F
:101F3000D3F80C020CEA0000C3F80C028C88486944
:101F4000CD6844EA0544483043F830408C6808883E
:101F500040EA04404C6904F1480E03EBCE0358609C
:101F6000CB69012B1ED08B69002B33D12448D0F8CC
:101F700004320CEA0303C0F804320B698BBB20481F
:101F8000D0F814320CEA0303C0F814320B6A012BA8
:101F90002ED01B4AD2F8003223F00103C2F80032DF
:101FA000002030BD164BD3F80C021043C3F80C02CE
:101FB0008C8848690D6844EA0544483043F830404D
:101FC00088894C698D6840EA0540483403EBC403B6
:101FD0005860C8E70A48D0F804321343C0F8043206
:101FE000CBE70748D0F814321343C0F81432CDE7DA
:101FF0000349D1F81C321A43C1F81C22C9E700BFBB
:102000000064004070B5044690F82050EDB2012DF8
:1020100006D0436A43F4002343620125284670BD7D
:10202000022380F820300268136823F00103136054
:10203000FFF77EFE064623685B6813F0010F0CD0A5
:10204000FFF776FE831B0A2BF5D9636A43F400334E
:102050006362052384F82030E0E700256562DDE750
:1020600030B590F820C00468A4680CF1FF3C5FFA1A
:102070008CFCBCF1010F6BD814F0E05F62D0C4F3AC
:10208000016CBCF1020F05D9436A43F400034362BB
:10209000012062E0012404FA0CF41C608B68002B20
:1020A0003DD10D68CB68046843EA45550CF118032F
:1020B0001B01E55003680C690CF1180E03EB0E13BD
:1020C0005C600B7D012B35D0D17993791B0443EAF9
:1020D0000163517943EA012314790168234301EB39
:1020E0000C11C1F88C31D17893781B0443EA016359
:1020F000517843EA0123117802680B4302EB0C127A
:10210000C2F8883102680CF1180C4FEA0C1C52F826
:102110000C3043F0010342F80C3000201DE04C6805
:1021200043EAC403CC6823430CF118042401056876
:102130002B51BFE7036803EB0E13596841F480711C
:102140005960C1E7436A43F400134362012004E08D
:10215000436A43F480234362012030BD90F820C0DD
:102160000CF1FF3C5FFA8CFCBCF1010F00F2958092
:1021700030B451B90468E46814F0030F10D1436A15
:1021800043F400134362012077E00468246914F0EB
:10219000030F05D1436A43F40013436201206CE04E
:1021A00001F11B04240105682C5904F00404946017
:1021B000002C64D101F11B04240105682C59640D25
:1021C0001460046801F11B0C4FEA0C1C54F80C401D
:1021D00004F00204D46004686444646804F00F04EA
:1021E0001461046864446468C4F307249461046857
:1021F00064446468240C5461026802EB0112D2F852
:10220000B8211A70026802EB0112D2F8B821C2F3A9
:1022100007225A70026802EB0112D2F8B821C2F309
:1022200007429A70026802EB0112D2F8B821120E2E
:10223000DA70026802EB0112D2F8BC211A7102684E
:1022400002EB0112D2F8BC21C2F307225A710268D4
:1022500002EB0112D2F8BC21C2F307429A71026864
:1022600002EB0112D2F8BC21120EDA7179B90268C0
:10227000D36843F02003D360002030BC704701F1E5
:102280001B04240105682C59E408546099E702688E
:10229000136943F020031361EEE7436A43F480239C
:1022A00043620120704790F82030013BDBB2012BE4
:1022B00005D9436A43F480234362012070470268D2
:1022C0005369194351610020704770477047704748
:1022D0007047704770477047704770477047704746
:1022E0002DE9F84F054603685C69D3F804809F68C0
:1022F000D3F80CB0D3F810A0D3F8189014F001065E
:102300003BD017F0010616D001229A6017F0020F99
:1023100008D117F0040F0CD117F0080606D04FF4BF
:10232000805608E0FFF7D1FF002604E0FFF7D0FF5A
:1023300001E04FF4006617F4807F0DD02B684FF456
:1023400080729A6017F4007F40F0868017F4806FE7
:1023500000F0868046F4005617F4803F0DD02B68BD
:102360004FF480329A6017F4003F40F0838017F4F6
:10237000802F00F0838046F4004614F0080F07D049
:102380001BF0100F04D046F400762B681022DA60A0
:1023900014F0040F02D01BF0080F79D114F0020FD3
:1023A00004D02B68DB6813F0030F78D114F0400FD2
:1023B00007D01AF0100F04D046F480662B68102264
:1023C0001A6114F0200F02D01AF0080F6BD114F02C
:1023D000100F04D02B681B6913F0030F6AD114F49B
:1023E000003F02D018F0100F68D114F4803F02D0E3
:1023F00018F0080F69D114F4004F7AD018F0040FC8
:1024000074D014F4807F04D019F0010F01D046F08D
:10241000010614F4007F04D019F0020F01D046F039
:10242000020614F4806F04D019F0040F01D046F0B6
:10243000040614F4006F59D019F0700956D0B9F1A0
:10244000400F65D058D8B9F1200F5ED0B9F1300FE8
:1024500042D146F0200644E02846FFF737FF7BE7ED
:1024600017F4006F02D046F4804675E72846FFF760
:1024700030FF71E72846FFF72AFF7EE717F4002FA9
:1024800002D046F4803678E72846FFF723FF74E74A
:102490002B680822DA602846FFF71DFF7EE72846F2
:1024A00001F0D8FE82E72B6808221A612846FFF760
:1024B00014FF8CE72846FFF70FFF90E72B681022E8
:1024C0005A602846FFF70AFF8FE72B6808225A60F8
:1024D0002846FFF704FF8EE7B9F1100F01D146F04F
:1024E00008062A68936923F0700393612B6804221D
:1024F0005A609EB9BDE8F88FB9F1500F0BD0B9F111
:10250000600FEED146F48076EBE746F01006E8E780
:1025100046F04006E5E746F08006E2E76B6A1E43B8
:102520006E62284601F0A6FCE4E790F83E30DBB28C
:10253000402B10D00369B3F5804F1BD0036D002BE7
:1025400039D1436CC3F3C813026803F0060343F0A8
:10255000F00313617047036D2BB9436C026803F0FD
:10256000FE0313617047436C026843F00103DBB262
:102570001361704790F83D30DBB2212B0FD0436CD4
:10258000026843F00103DBB21361436B6BB1DB6B99
:102590005BB10268536843F4006353607047436C57
:1025A000026803F0FE031361EFE7836B33B1DB6B6B
:1025B000002BEED102E0036D012B00D07047436C7D
:1025C000C3F3C813026803F0060343F0F103136179
:1025D000F4E7436C0268DBB21361436B3BB1DB6B26
:1025E0002BB10268536843F4006353607047836BF8
:1025F000002BFBD0DB6B002BF3D1F7E710B48BB0D3
:1026000090F83E30DAB2C16A046B90F83D30DBB22C
:10261000222B0BD00023099303685A6909929B6906
:102620000993099B0BB05DF8044B7047036D0BB920
:10263000402A17D0036D1BB90369B3F5404F19D079
:10264000438D9BB2002B25D1029303685A690292F5
:102650009A690292029A1A6842F400721A60002380
:102660000365DFE7009303685A6900929B69009352
:10267000009BD7E70023019303685A6901929A6986
:102680000192019A1A6842F480721A60036D013354
:102690000365C7E7438D9BB2012B25D0438D9BB2C9
:1026A000022B7BD00268136843F4806313600368D5
:1026B0005A6812F4006F0ED011F5803F07D001293F
:1026C00005D0082903D0102901D0202903D15A6848
:1026D00042F480525A600023089303685A690892B2
:1026E0009B690893089BBAE711F5803F11D0082930
:1026F00034D0202932D0122C2ED0042940D00229E7
:102700003ED010293CD00268136823F48063136024
:102710003BE00268136823F48063136003685A681F
:1027200012F4006F0CD01A6822F480621A60002341
:10273000039303685A6903929B690393039B8EE793
:10274000002204925A6904929A690492049A1A68BF
:1027500042F400721A6082E70129CED00268136841
:1027600023F4806313600023069303685A6906927A
:102770009A690692069A1A6842F400721A606EE725
:102780000268136843F480631360002305930368B1
:102790005A6905929B690593059B60E704290ED051
:1027A00002290CD010290AD00268136823F4806330
:1027B00013600268136843F40063136004E0026866
:1027C000136843F48063136003685A6812F4006F5F
:1027D0000ED011F5803F07D0012905D0082903D07C
:1027E000102901D0202903D15A6842F480525A603E
:1027F0000023079303685A6907929B690793079B15
:102800002DE7438D9BB25BB1426A036812781A616F
:10281000436A01334362438D9BB2013B9BB24385C4
:102820007047438D9BB25BB103681A69436A1A70A3
:10283000436A01334362438D9BB2013B9BB24385A4
:102840007047000082B0002301930E4B1B68DB0829
:102850000D4AA2FB03231B0A03EB83030193019B95
:10286000013B0193019B33B103681B6813F4007FA4
:10287000F5D1002004E0036C43F020030364012041
:1028800002B070470C00002089B5F814C36AB3F594
:102890002A0F04D0C36AB3F12A4F03D07047012333
:1028A000C36270470823C362F8E70000002800F005
:1028B000CC8070B5044690F83D30002B77D02423AF
:1028C00084F83D302268136823F001031360226806
:1028D000136843F4004313602268136823F4004331
:1028E0001360FEF7EBFF62685A4B9A4264D85A4B6A
:1028F00098428CBF00230123002B40F0A880574949
:10290000A1FB00318B0C25686A6822F03F0242EA85
:1029100091426A6021680A6A22F03F0266684D4D62
:10292000AE424FD8013313430B622168CA6922F4C7
:102930004F4222F0FF026668464B9E424CD8431E2F
:102940007600B3FBF6F3013340F6FC70034278D017
:10295000C3F30B031343CB6121680B6823F0C0035F
:10296000E269206A024313430B6021688B6823F4F9
:10297000034323F0FF032269E068024313438B60A3
:102980002168CB6823F0FF036269A0690243134307
:10299000CB602268136843F00103136000202064B9
:1029A000202384F83D30206384F83E0070BD80F819
:1029B0003C3001F087FA82E7294B98428CBF002314
:1029C000012399E74FF4967505FB03F3254DA5FB0D
:1029D00003539B090133A6E7A368BBB9451E06EB69
:1029E000460CB5FBFCF50135C5F30B05B5FA85F5CD
:1029F0006D0945BBC3B9013806EB4603B0FBF3F3E1
:102A00000133C3F30B0343F40043A3E7451E06EB76
:102A1000860C0CEB8C0CB5FBFCF50135C5F30B05F6
:102A2000B5FA85F56D09E4E7013806EB860303EB9B
:102A30008303B0FBF3F30133C3F30B0343F44043CD
:102A400088E7042386E7012384E7012070470120FB
:102A5000ACE700BFA08601007F841E0083DE1B431D
:102A6000FF083D00D34D621090F83D30DBB2202BC3
:102A700037D1002937D0002A37D090F83C30012BCD
:102A800035D010B4012380F83C3003681C6814F082
:102A9000010F03D11C6844F001041C600468236822
:102AA00023F400632360222380F83D30202380F844
:102AB0003E300023036441624285428D02850D4A07
:102AC000C26201680A6842F480620A6080F83C30A1
:102AD00001684A6842F4E0624A6018465DF8044BB7
:102AE0007047022070470120704701207047022084
:102AF000704700BF0000FFFF70477047704708B580
:102B000090F83D30DAB2438D9BB283B1416A0368DD
:102B100009781961436A01334362438D9BB2013BDB
:102B20009BB24385438D9BB20BB9292A00D008BDC7
:102B30000268536823F480635360212303632823CE
:102B400080F83D30FFF7DAFFF1E708B590F83D3047
:102B5000DAB2438D9BB283B103681969436A197075
:102B6000436A01334362438D9BB2013B9BB2438571
:102B7000438D9BB20BB92A2A00D008BD0268536866
:102B800023F48063536022230363282380F83D30BD
:102B9000FEF7E6F8F1E7704700B583B090F83D30F6
:102BA00003F02803282B0CD00023019302685169FD
:102BB000019192690192019A80F83C3003B05DF86E
:102BC00004FB0268536823F48063536011F0040F20
:102BD0000BD0002311F0800F09D18289002180F8E9
:102BE0003C101946FFF7D7FFE8E70123F2E7028B15
:102BF000F4E7704708B590F83D30DBB2C26A082AA6
:102C000001D0202A01D1282B06D0212B1ED0036809
:102C10006FF480625A6108BD1A4BC3620268536840
:102C200023F4E063536003686FF480625A610268C2
:102C3000136823F48063136000230363202280F869
:102C40003D2080F83E30FFF7D4FFE4E70D4BC36230
:102C500021230363202380F83D30002380F83E3099
:102C60000268536823F4E063536003686FF4806282
:102C70005A610268136823F480631360FFF73EFF14
:102C8000C9E700BF0000FFFF704708B5C26A90F8AF
:102C90003D30DBB2212B00D008BD438D9BB263B128
:102CA000426A036812781A61436A01334362438DB2
:102CB0009BB2013B9BB24385EEE7082A04D0202A51
:102CC00002D012F5803F19D10268536823F4E06303
:102CD00053600268136843F40073136000230363B6
:102CE000202380F83D3090F83E30DBB2402B15D0E9
:102CF000002380F83E30FFF7FFFECDE702685368FF
:102D000023F4E063536011230363002380F83E3013
:102D1000202380F83D30FFF7EFFEBDE7002380F869
:102D20003E30FFF7B1FFB7E708B590F83D30026DD0
:102D30009AB9C36C012B08D0836CC3F307230268D4
:102D40001361036D0133036508BD836C0268DBB258
:102D50001361036D02330365F6E7DBB2026D012AEE
:102D600023D0026D022AEFD1222B26D0428D92B2BF
:102D70000AB1212B2AD0428D92B2002AE4D1212B14
:102D8000E2D10268536823F4E06353600268136879
:102D900043F40073136000230363202280F83D2076
:102DA00080F83E30FFF770FFCEE7836C0268DBB23D
:102DB0001361036D01330365C6E70268136843F4CA
:102DC00080731360036D01330365BDE7426A0368D6
:102DD00012781A61436A01334362438D9BB2013B0F
:102DE0009BB24385B0E710B590F83D30DBB290F868
:102DF0003E20D2B2C46A018D09B9212B04D0212B07
:102E00003BD0402A37D010BD082C04D0202C02D053
:102E100014F5803F19D10268536823F4E0635360CE
:102E20000268136843F400731360002303632023D4
:102E300080F83D3090F83E30DBB2402B15D00023B7
:102E400080F83E30FFF758FEDDE70268536823F450
:102E5000E063536011230363002380F83E30202396
:102E600080F83D30FFF748FECDE7002380F83E3084
:102E7000FFF70AFFC7E7222BC5D1438D9BB22BB9C1
:102E80000268536823F480635360BCE790F83E30D7
:102E9000DBB2402B0CD0426A036812781A61436A95
:102EA00001334362438D9BB2013B9BB24385AAE74A
:102EB000FFF73AFFA7E7704708B5C26A438D9BB298
:102EC000042B14D0438D9BB2032B22D0438D9BB295
:102ED000022B39D003681A69436A1A70436A0133B6
:102EE0004362438D9BB2013B9BB2438510E0026875
:102EF000536823F48063536003681A69436A1A7045
:102F0000436A01334362438D9BB2013B9BB24385CD
:102F100008BD01684B6823F480634B60042A06D027
:102F2000022A04D00268136823F4806313600368E4
:102F30001A69436A1A70436A01334362438D9BB234
:102F4000013B9BB24385E3E7012A0BD0102A09D04D
:102F5000042A38D0022A36D00268136843F400737A
:102F6000136004E00268136823F48063136003684D
:102F70001A69436A1A70426A531C4362438D9BB2BA
:102F8000013B9BB2438503681B695370436A01335D
:102F90004362438D9BB2013B9BB2438502685368F9
:102FA00023F440735360202380F83D3090F83E3086
:102FB000DBB2402B0DD0002380F83E301223036398
:102FC000FFF79BFDA4E70268136843F48063136076
:102FD000CDE7002380F83E300363FFF76CFF97E7EF
:102FE000704790F83D30DBB2222B00D0704710B50F
:102FF0000446438D9BB2032B15D903681A69436AB3
:103000001A70436A01334362438D9BB2013B9BB20A
:103010004385438D9BB2032B0FD10268536823F481
:103020008063536009E0C26A022A01D0012B05D9EE
:103030002268536823F48063536010BDFFF702FCDD
:1030400000282ED12268136823F48063136022685D
:10305000536823F4E063536023681A69636A1A7043
:10306000636A01336362638D9BB2013B9BB26385EC
:10307000202384F83D3094F83E30DBB2402B08D05A
:10308000002384F83E30122323632046FFF735FDEA
:10309000D3E7002384F83E3023632046FFF70BFF7D
:1030A000CBE72268536823F4E063536023681A690E
:1030B000636A1A70636A01336362638D9BB2013B7A
:1030C0009BB26385202384F83D30002384F83E3092
:1030D0002046FFF785FFB0E77047000000B583B0DA
:1030E00000230193806B90F83D20D2B2324B1B68D5
:1030F000DB083249A1FB03131B0A03EB8303C3EB79
:10310000C3030193019B43B1019B013B01930368FE
:103110001B6813F4007FF5D103E0036C43F0200338
:103120000364436B0BB10021D963836B0BB10021A6
:10313000D96301680B6823F480630B600023438527
:10314000436B0BB100211965836B0BB1002119652D
:1031500001680B6823F001030B6090F83D30DBB28F
:10316000602B0ED002F02802282A14D0202380F8E9
:103170003D30002380F83E30FFF732FF03B05DF8AA
:1031800004FB202380F83D30002380F83E300364A8
:10319000FFF7A2FFF2E70268136843F00103136030
:1031A0000268136843F480631360002303632823D9
:1031B00080F83D30E0E700BF0C00002089B5F8142E
:1031C00010B5044690F83D30DBB290F83E20D2B204
:1031D000102A36D0402A34D003F02802282A38D0CA
:1031E0002268526812F4006F07D1602B05D02023AB
:1031F00084F83D30002384F83E30002323632368A5
:103200005A6812F4006F48D05A6822F400625A607B
:10321000626B92F83530DBB2012B20D0444B136542
:10322000606BFEF7B6FC002849D02268136823F0D3
:1032300001031360202384F83D30606B036D9847D1
:103240003DE0222BC8D121680A6822F400620A609E
:10325000C2E700232363282384F83D30CFE7A36B24
:10326000334A1A65A06BFEF794FC40B323685A6991
:1032700012F0400F05D01A69636A1A70636A01334D
:1032800063622268136823F001031360202384F82B
:103290003D30A06B036D984711E094F83D20D2B209
:1032A000602A1FD05A6912F0400F05D01A69636A6C
:1032B0001A70636A013363622046FFF791FE236C44
:1032C00013F00F0F04D02268536823F4E0635360B7
:1032D00094F83D30DBB2226C12F0040F01D0282BA1
:1032E00018D010BD202284F83D20002222645A69A3
:1032F00012F0400F05D01A69636A1A70636A0133CD
:1033000063622268136823F0010313602046FFF70D
:10331000E3FED4E7074BE36200232363202284F813
:103320003D2084F83E302046FFF763FCD9E700BF1C
:10333000DD3000080000FFFF30B583B0044690F890
:103340003D50EDB20268536823F4E06353600023FC
:10335000019303685A6901921A6842F001021A60E7
:10336000019B0268136823F48063136003685A6842
:1033700012F4006F38D0222D21D02A2D1FD0426B9D
:103380001268526892B24285428D92B21AB1026CB2
:1033900042F0040202645A6822F400625A60606BD0
:1033A000FEF70AFC01281FD0636B444A1A65606B64
:1033B000FEF7EFFBC0B1606B036D984714E0A26BA2
:1033C0001268526892B26285628D92B21AB1226C12
:1033D00042F0040222645A6822F400625A60A06B30
:1033E000FEF7EAFB012842D1638D9BB233B3236819
:1033F0005A6912F0040F0AD01A69636A1A70636A74
:1034000001336362638D9BB2013B9BB2638523688A
:103410005A6912F0400F0AD01A69636A1A70636A17
:1034200001336362638D9BB2013B9BB26385638D05
:103430009BB21BB1236C43F004032364236C13BBC6
:103440002A2D25D094F83D30DBB2282B29D0236BD0
:10345000222B01D0222D19D100232363202284F8AE
:103460003D2084F83E302046FDF77AFC0EE0A36B49
:10347000124A1A65A06BFEF78CFB0028B4D0A06B33
:10348000036D9847B0E72046FFF79AFE03B030BDC2
:1034900000232363282384F83D302046FDF760FC99
:1034A000D0E7074BE36200232363202284F83D200A
:1034B00084F83E302046FFF79CFBE7E7DD3000084C
:1034C0000000FFFFF8B5044602685568C66A90F828
:1034D0003E30DBB290F83D10C8B2102B13D0402B19
:1034E00011D0236C002B7AD05369002113F0020F06
:1034F00078D015F4007F75D0236C03B19169204614
:10350000FFF74AFBF8BDD2F818C0516911F0010766
:1035100005D1B6F52A0FF5D0B6F12A4FF2D017B182
:1035200015F4007F29D111F0080F02D015F4007FA7
:103530002AD111F0020F02D015F4007F28D11CF01F
:10354000040F31D0526812F4006FDBD111F0800FFC
:1035500005D015F4806F02D011F0040F1CD011F0CB
:10356000040FCFD015F4007FCCD0212818D0402BE9
:10357000C8D12046FFF7D8FBC4E72046FFF786F9FD
:103580002046FEF7D2FFBDE72046FFF722F8B9E755
:103590002046FFF733F8B5E72046FFF724FCB1E7F4
:1035A0002046FFF772FBADE7536813F4006FA9D113
:1035B00011F0400F05D015F4806F02D011F0040F08
:1035C00009D011F0040F9DD015F4007F9AD0204649
:1035D000FFF772FC96E72046FFF703FD92E791693B
:1035E000536983E713F0100F02D015F4007F18D150
:1035F00021281AD0292818D013F0400F05D015F42F
:10360000806F02D013F0040F28D013F0040F3FF4A2
:1036100079AF15F4007F3FF475AF2046FFF701F94D
:1036200070E72046FFF788FE6CE713F0800F05D0A7
:1036300015F4806F02D013F0040F0BD013F0040FB9
:103640003FF460AF15F4007F3FF45CAF2046FFF716
:10365000D8F857E72046FFF752FA53E72046FFF71E
:1036600074FA4FE7F8B5044603685D695F6890F83F
:103670003E20D2B215F4807F07D017F4807F3CD073
:103680006FF480715961012600E0002615F4007F77
:1036900008D017F4807F05D046F0020623686FF447
:1036A0000071596115F4806F19D017F4807F16D01E
:1036B000638D99B294F83D30DBB2206B202A1ED086
:1036C00023686FF48061596146F00406102A01D026
:1036D000402A04D12268136843F40073136015F480
:1036E000006F08D017F4807F05D046F008062368E5
:1036F0006FF400625A6186B9F8BD0026C6E700295A
:10370000DED1212B05D0292B03D0282BD8D121287D
:10371000D6D12046FFF76EFAE1E7236C1E432664FC
:103720002046FFF74DFDE7E7026802F10C0353E87E
:10373000003F23F490730C3242E800310029F3D1AA
:10374000026802F1140353E8003F23F0010314322E
:1037500042E800310029F3D1036B012B05D020236F
:1037600080F83E30002303637047026802F10C03C7
:1037700053E8003F23F010030C3242E800310029E7
:10378000F3D1ECE790F83D30DBB2212B01D00220E1
:1037900070478368B3F5805F17D0036A5A1C0262D2
:1037A0001A7803685A60C38C9BB2013B9BB2C384F6
:1037B0004BB90268D36823F08003D3600268D368F2
:1037C00043F04003D360002070470369002BE4D12D
:1037D000036A1B880268C3F308035360036A023359
:1037E0000362E0E738B504460268136923F44053E6
:1037F000C1680B4313618368026913434269134331
:10380000C2691A430168CB6823F4164323F00C0302
:103810001343CB600268536923F4407381690B43FF
:1038200053610368314A934206D002F580629342A5
:1038300002D0FEF743F801E0FEF750F8E369B3F574
:10384000004F29D00021031849411B1841F1000104
:10385000C90041EA5371DB00181863684FEA83021C
:103860004FEA937341F10001FDF7F8F8204DA5FBF5
:1038700000325109642303FB11031B013233A5FB02
:1038800003235B0903F0F00202EB011203F00F03C4
:10389000216813448B6038BD0023021843EB0301F9
:1038A000121841F10001C90041EA5271D20010180A
:1038B00041F10001626892185B41FDF7CFF80C4DB1
:1038C000A5FB00325109642303FB1103DB003233F3
:1038D000A5FB03235B095A0002F4F87202EB011204
:1038E00003F00703216813448B60D4E70010014004
:1038F0001F85EB5158B310B5044690F83D300BB31B
:10390000242384F83D302268D36823F40053D36025
:103910002046FFF767FF2268136923F49043136181
:103920002268536923F02A0353612268D36843F461
:103930000053D36000202064202384F83D3084F8B5
:103940003E3010BD80F83C3000F01EFBD8E701206F
:103950007047704708B50168CA6822F04002CA6023
:10396000202280F83D20FFF7F4FF002008BD7047BB
:10397000704708B5806B0023C385C384FFF7F8FF49
:1039800008BD704790F83E30DBB2222B67D18368C8
:10399000B3F5805F4DD0826AB3F5805F04D0002B11
:1039A00054D10369002B51D103685B681370836A9B
:1039B00001338362C38D9BB2013B9BB2C385002B55
:1039C0004FD100B583B00268D36823F02003D360E1
:1039D0000268D36823F48073D3600268536923F0CC
:1039E00001035361202380F83E30036B012B33D158
:1039F00000230363026802F10C0353E8003F23F045
:103A000010030C3242E800310029F3D103681A6830
:103A100012F0100F06D0002201921A6801925B6822
:103A20000193019B818DFFF7ACFF002003B05DF88F
:103A300004FB0269002AAED1826A03685B68C3F3A3
:103A400008031380836A02338362B3E703685B6809
:103A500003F07F031370AAE7FFF789FFE5E7022071
:103A6000704700207047000030B583B004460268FC
:103A70001368D068516913F00F0505D113F0200FBA
:103A800002D010F0200F19D12DB111F0010119D180
:103A900010F4907F16D1216B01297DD013F0800F97
:103AA00003D010F0800F40F0158113F0400F03D0C9
:103AB00010F0400F40F0128103B030BD2046FFF7F8
:103AC00061FFF9E713F0010F06D010F4807F03D0F7
:103AD000226C42F00102226413F0040F04D019B1E9
:103AE000226C42F00202226413F0020F04D019B1DA
:103AF000226C42F00402226413F0080F07D010F089
:103B0000200F00D119B1226C42F008022264226C0D
:103B1000002AD1D013F0200F02D010F0200F29D1AD
:103B200023685B6903F04003226C12F0080F00D198
:103B300063B32046FFF7F8FD23685B6913F0400F7D
:103B400020D0226802F1140353E8003F23F0400321
:103B5000143242E800310029F3D1A36B73B1614AFA
:103B60001A65A06BFEF715F80028A5D0A06B036DB1
:103B70009847A1E72046FFF705FFD1E72046FFF76A
:103B8000F7FE99E72046FFF7F3FE95E72046FFF79B
:103B9000EFFE002323648FE713F0100F3FF47EAF96
:103BA00010F0100F3FF47AAF0023019313680193D4
:103BB00053680193019B536913F0400F50D0A26BDF
:103BC00013685B689BB2002B3FF476AFA18D9942DE
:103BD0007FF672AFE385D369B3F5807F37D0226873
:103BE00002F10C0353E8003F23F480730C3242E8E7
:103BF00000310029F3D1226802F1140353E8003F99
:103C000023F00103143242E800310029F3D1226885
:103C100002F1140353E8003F23F04003143242E85A
:103C200000310029F3D1202384F83E3000232363A0
:103C3000226802F10C0353E8003F23F010030C321A
:103C400042E800310029F3D1A06BFDF758FFA18DA8
:103C5000E38D9BB2C91A89B22046FFF792FE2BE78B
:103C6000A18DE38D9BB2C91A89B2E38D9BB2002B63
:103C70003FF422AF00293FF41FAF226802F10C038A
:103C800053E8003F23F490730C3242E800300028E0
:103C9000F3D1226802F1140353E8003F23F001033B
:103CA000143242E800300028F3D1202384F83E305B
:103CB00000232363226802F10C0353E8003F23F042
:103CC00010030C3242E800300028F3D12046FFF701
:103CD00058FEF1E62046FFF755FDEDE62046FFF7DA
:103CE00039FEE9E67339000830B58DB00024079439
:103CF000089409940A940B940194284B1A6B42F08F
:103D000001021A631A6B02F001020192019A0294F5
:103D10001A6B42F002021A631A6B02F0020202925C
:103D2000029A03941A6B42F008021A631A6B02F0AB
:103D300008020392039A04941A6B42F004021A6375
:103D40001A6B02F004020492049A05941A6B42F072
:103D500020021A631A6B02F020020592059A06945B
:103D60001A6B42F080021A631B6B03F08003069308
:103D7000069B0B4D01224FF480612846FDF7B0FEF3
:103D80004FF4806307930123089309940A9407A9C9
:103D90002846FDF7B3FD0DB030BD00BF003802402E
:103DA000001C024008B50E480E4B0360032343601D
:103DB00000238360C3604FF4002202614FF440127D
:103DC00042610376012242768376C3760377437796
:103DD000FDF7D6FF00B908BDFDF7D4F8FBE700BF3B
:103DE000E40300200064004010B588B00023039372
:103DF000049305930693079302681C4B9A4201D0E3
:103E000008B010BD0024019403F5EA331A6C42F0A7
:103E100000721A641A6C02F000720192019A029404
:103E20001A6B42F008021A631B6B03F0080302933B
:103E3000029B032303930222049206930923079310
:103E400003A90B48FDF75AFD224621461320FDF732
:103E5000C9FE1320FDF7FEFE224621461420FDF781
:103E6000C1FE1420FDF7F6FECAE700BF0064004063
:103E7000000C0240034B1A68536943F0020353617C
:103E8000704700BFE403002008B50B480B4B0360EC
:103E90000B4B4360002383601A22C2604FF48042C0
:103EA000026143618361C3610362FEF7FFFC00B9F5
:103EB00008BDFDF767F8FBE70C0400200058004040
:103EC000A086010030B589B00023039304930593C5
:103ED0000693079302681B4B9A4201D009B030BD8C
:103EE00000240194184D2B6B43F020032B632B6BA4
:103EF00003F020030193019B0323039312220492F6
:103F000006930423079303A91048FDF7F7FC0294D6
:103F10002B6C43F480032B642B6C03F4800302931B
:103F2000029B224621462120FDF75CFE2120FDF761
:103F300091FE224621462220FDF754FE2220FDF765
:103F400089FECBE7005800400038024000140240D0
:103F500008B50A480A4B03600A4B4360002383609C
:103F6000C36003610C2242618361C361FFF7C2FC3D
:103F700000B908BDFDF706F8FBE700BF60040020AC
:103F80000010014080841E00F0B589B00023039327
:103F90000493059306930793026803F1804303F5A6
:103FA00088339A4201D009B0F0BD0024009403F593
:103FB00094335A6C42F010025A645A6C02F01002A8
:103FC0000092009A01941A6B42F002021A631A6B73
:103FD00002F002020192019A02941A6B42F001026D
:103FE0001A631B6B03F001030293029B802303936C
:103FF00002270497032606960725079503A90B4871
:10400000FDF77CFC4FF40073039304970594069628
:10401000079503A90648FDF771FC22462146252095
:10402000FDF7E0FD2520FDF715FEBCE7000402408A
:104030000000024007EE902A07EE103A0170BDF82A
:10404000003006EE903AF8EE666AC0ED116A80ED37
:10405000100AB8EE477A80ED0F7AF8EE677AC0ED75
:104060000E7ABDF9043007EE903AF8EEE77AC0ED2B
:10407000127ABDF9083007EE903AF8EEE77AC0ED13
:10408000017AC0ED030A80ED041AC0ED051A002381
:104090000363704780ED030AC0ED040A80ED051A42
:1040A0007047401A02EBD273B0EB630F06DC02EBF1
:1040B000D2735B105B42984202DB7047801A7047F4
:1040C0001044FAE738B52DED048B0446B0EE408A73
:1040D0000D46C36C0365FDF72BFEE064236DC01A2B
:1040E00084F8540084ED068A94ED079A84ED089ACA
:1040F000D4ED0C8AC4ED0D8A002D6ED194ED010A29
:1041000030EE488A84ED078A94ED077AB5EEC07ADE
:10411000F1EE10FA75DDF0EE477AD4ED106AF4EEA8
:10412000E76AF1EE10FA53D5D4ED036A67EE266A1A
:10413000C4ED096A94ED046A27EE066AD4ED0A7AA2
:1041400036EE276A84ED0A6AD4ED057A37EE497AAD
:1041500067EE877AC4ED0B7A94ED0F7AB4EEC76AF6
:10416000F1EE10FA01DD84ED0A7A94ED0A6AB1EEFF
:10417000477AB4EEC76AF1EE10FA01D584ED0A7AF7
:1041800094ED0A7A76EE876A77EEA67AC4ED0C7A19
:104190009FED1D7A67EE877A9FED1C7A68EE878A1D
:1041A00077EEA87AC4ED0C7A94ED0E7AF4EEC77A25
:1041B000F1EE10FA01DD84ED0C7AD4ED0C7AB1EE5B
:1041C000477AF4EEC77AF1EE10FA01D584ED0C7A55
:1041D00094ED0C0ABDEC048B38BDD4ED017A2A466F
:1041E000BDEEC87A17EE101AFDEEE77A17EE900AC8
:1041F000FFF757FF07EE900AF8EEE77AC4ED077A6B
:1042000082E7F1EE477A88E73333333F9A99993E54
:10421000034B8365034BC365034B0366704700BFC5
:104220003540000895400008C540000800B58BB037
:1042300000230693012207920093019302930393B4
:1042400004930E23059308926946FDF73FFE0BB0D9
:104250005DF804FB70B58AB00546002440F20123E6
:10426000039304940594069408230793FDF760FDD7
:10427000434B1B68C01AB0F5FA7F0ED801AB03AAF6
:1042800000212846FDF76AFF039BA3F20523032BB9
:1042900014D8DFE803F0120C0E104FF48061394897
:1042A000FDF724FCFDF744FD354B1860E6E70124DB
:1042B00004E0022402E0032400E000242046324D02
:1042C00004EB44014FEA011E05EB0111B1F80CC0EB
:1042D000A1F80EC09DF804209DF8053043EA0223A2
:1042E0008B819DF806609DF8072042EA062225F89A
:1042F0000E209DF808509DF8092042EA052207EE9D
:10430000902AF8EEE77AB1EE047A67EE877A9FEDAD
:104310001F7A67EE877AC1ED017A9DF80A208A72CA
:10432000A3EB0C0CBCF5805F1EDD04EB44021649C8
:1043300001EB0212516901395161134A00EB40014E
:1043400002EB01114C6903EB4433098A5B1A00EB61
:10435000400002EB001083610D4B1A68536943F073
:10436000020353610AB070BD1CF5805FE5DA04EB0F
:104370004402054901EB0212516901315161DCE748
:10438000A4040020001C0240A80400200000803883
:10439000E403002030B58BB0BDF938C0002401948F
:1043A00040F2FF1504950594069407940825089596
:1043B0008DF8244041FA05F48DF808408DF8091075
:1043C00042FA05F18DF80A108DF80B2043FA05F238
:1043D0008DF80C208DF80D309DF939308DF80E30A8
:1043E0008DF80FC001AB0DEB050204A9FDF738FEF7
:1043F0000BB030BDDFF834D00D480E490E4A002313
:1044000002E0D458C4500433C4188C42F9D30B4A88
:104410000B4C002301E013600432A242FBD3FDF7F2
:10442000A1FC00F011F8FCF701FE7047000002202B
:1044300000000020740000203456000874000020A2
:104440007C050020FEE7000070B50D4D0D4C641B8F
:10445000A4100026A64209D10B4D0C4C01F062F8C5
:10446000641BA4100026A64205D170BD55F8043B7C
:1044700098470136EEE755F8043B98470136F2E7D6
:104480002C5600082C5600082C5600083056000800
:1044900002440346934200D1704703F8011BF9E739
:1044A0000FB40A4B13B51C6824B1A36913B9204695
:1044B00000F05EFA05AB049AA1680193204600F073
:1044C00067FC02B0BDE8104004B070471000002047
:1044D00070B50E46054618B183690BB900F048FA6D
:1044E000AB69AC6813B9284600F042FA2C4B9C42E9
:1044F00020D16C68636EDB0705D4A389980502D4CC
:10450000A06D00F0D3FAA38919071DD52369DBB18B
:10451000013EA36816F8011F013BA36039BB002BC5
:1045200038DA22460A21284600F048F8013011D036
:104530000A2511E01B4B9C4201D1AC68DAE71A4B0B
:104540009C4208BFEC68D5E72146284600F088F871
:104550000028DDD04FF0FF35636EDA0705D4A3895C
:104560009B0502D4A06D00F0A2FA284670BD002B76
:1045700004DAA2699A4206DC0A2904D023685A1C8C
:1045800022601970C5E72246284600F017F801306E
:10459000BFD1DFE723680A255A1C22601D70DBE7C4
:1045A000B0550008D055000890550008024B014650
:1045B0001868FFF78DBF00BF10000020F8B50E4649
:1045C0001446054618B183690BB900F0D1F9214BA7
:1045D0009C422BD16C68A369A360A3891A072FD5CD
:1045E00023696BB323692068C01A6369F6B28342FA
:1045F000374604DC2146284600F026F930BBA36884
:10460000013BA36023685A1C22601E70636901305D
:10461000834204D0A389DB0706D50A2E04D12146A4
:10462000284600F011F988B93846F8BD0A4B9C427B
:1046300001D1AC68CFE7094B9C4208BFEC68CAE7E0
:104640002146284600F00CF80028CBD04FF0FF3769
:10465000EAE700BFB0550008D055000890550008A3
:10466000324B70B51D6806460C4625B1AB6913B9CF
:10467000284600F07DF92E4B9C420FD16C68A3892F
:10468000B4F90C2019072CD4DD0611D409233360AA
:1046900042F04003A3814FF0FF303EE0254B9C42A7
:1046A00001D1AC68EBE7244B9C4208BFEC68E6E71D
:1046B000580712D5616B41B104F14403994202D00D
:1046C000304600F05BFA00236363A38923F02403E0
:1046D000A3810023636023692360A38943F0080357
:1046E000A38123694BB9A38903F42073B3F5007F39
:1046F00003D02146304600F001FAA089B4F90C201D
:1047000010F001030AD00023A36063695B42A36138
:10471000236943B910F08000BAD170BD810758BF3A
:104720006369A360F4E70020F7E700BF10000020F2
:10473000B0550008D0550008905500088A892DE929
:10474000F041054610070C4658D44B68002B05DC99
:104750000B6C002B02DC0020BDE8F081E66A002E25
:10476000F9D0002312F480522F682B6032D0606D94
:10477000A3895A0705D56368C01A636B0BB1236C14
:10478000C01A00230246E66A216A2846B047431C45
:10479000A38906D129681D292CD82A4ACA40D607E0
:1047A00028D500226260D9042269226004D5421C07
:1047B00001D12B6803B96065616B2F600029CAD0F5
:1047C00004F14403994202D0284600F0D7F90020B2
:1047D0006063C1E7216A01232846B047411CC7D165
:1047E0002B68002BC4D01D2B01D0162B01D12F60BC
:1047F000B1E7A38943F04003A381ADE70F69002F20
:10480000A9D093070E6808BF4B690F6018BF00233B
:10481000A6EB07088B60B8F1000F9CDD216AA66A41
:1048200043463A462846B047002806DCA38943F0B1
:104830004003A3814FF0FF308EE70744A8EB000848
:10484000E9E700BF0100402038B50B6905460C467A
:1048500013B90025284638BD18B183690BB900F09B
:1048600087F8144B9C421BD16C68B4F90C30002BB8
:10487000EFD0626ED00704D4990502D4A06D00F089
:1048800015F928462146FFF759FF636EDA070546FA
:10489000E0D4A3899B05DDD4A06D00F008F9D9E729
:1048A000054B9C4201D1AC68DFE7044B9C4208BF3A
:1048B000EC68DAE7B0550008D055000890550008BC
:1048C000002310B50446C0E90033C0E90433836017
:1048D00081814366C2818361194608225C30FFF7FB
:1048E000D7FD054B6362054BA362054BE362054BA5
:1048F0002462236310BD00BF395300085B530008D6
:1049000093530008B7530008014900F0AFB800BF47
:104910004948000870B568224D1E55430E4605F102
:10492000740100F097F9044640B10021C0E9001677
:104930000C30A06005F16802FFF7AAFD204670BDAB
:10494000014800F0B3B800BF69050020014800F03D
:10495000AEB800BF69050020014800F0A7B800BF4D
:104960006A050020014800F0A2B800BF6A050020D7
:1049700010B50446FFF7F0FFA3691BB1BDE8104076
:10498000FFF7F0BFC4E912332365134B134A1B68CA
:10499000A262A34204BF0123A361204600F020F8D5
:1049A0006060204600F01CF8A060204600F018F877
:1049B0000022E06004216068FFF782FFA068012206
:1049C0000921FFF77DFFE06802221221FFF778FF3F
:1049D0000123A361D2E700BF8C55000809490008F4
:1049E000F8B50746FFF7ACFF1E4B1E68B36913B955
:1049F0003046FFF7BDFF4836D6E90134013B03D509
:104A000033680BB33668F7E7B4F90C50D5B9164BD9
:104A1000E36004F15800656600F047F8FFF796FF81
:104A2000C4E90155C4E904552560A5610822294659
:104A300004F15C00FFF72CFDC4E90D55C4E91255E3
:104A40002046F8BD6834D9E704213846FFF762FFF5
:104A5000044630600028D5D1FFF778FF0C233B6077
:104A6000EEE700BF8C5500080100FFFF2DE9F84379
:104A70000646884600F148040027D4E90195B9F1BB
:104A8000010905D52468002CF7D13846BDE8F88324
:104A9000AB89012B07D9B5F90E30013303D0294674
:104AA0003046C04707436835E9E7704770477047AD
:104AB00070B50E46B1F90E10002996B014461D4689
:104AC00008DAB6F90C3000222A601A0610D44FF426
:104AD00080630EE06A4600F095FC0028F1DB019A45
:104AE00002F47042A2F500535A425A412A60EEE79E
:104AF00040230020236016B070BD00008B8973B581
:104B00009D0706460C4607D504F147032360236141
:104B10000123636102B070BD01AB6A46FFF7C8FFB5
:104B200000990546304600F095F848B9B4F90C30C4
:104B30009A05EFD423F0030343F00203A381E3E7D4
:104B40000D4BB362A389206043F08003A381009BD7
:104B50006361019B20615BB1B4F90E10304600F037
:104B600063FC28B1A38923F0030343F00103A3816D
:104B7000A0890543A581CDE70949000837B500297B
:104B800044D051F8043C0190002BA1F10404B8BFBB
:104B9000E41800F06BFC1E4A0198136833B9636097
:104BA000146003B0BDE8304000F066BCA34208D9F1
:104BB000256861198B4201BF19685B68491921603A
:104BC000EDE71A465B680BB1A342FAD91168551894
:104BD000A5420BD1246821445418A3421160E0D1AE
:104BE0001C685B68536021441160DAE702D90C232A
:104BF0000360D6E7256861198B4204BF19685B68BA
:104C0000636004BF491921605460CAE703B030BD36
:104C10006C05002070B50E4E0C463168054611B982
:104C200000F07AFB30602146284600F075FB431CFB
:104C30000AD0C41C24F00304A04207D0211A28463D
:104C400000F06AFB013001D14FF0FF34204670BD07
:104C5000700500202DE9F041CD1C25F00305083535
:104C60000C2D38BF0C25002D074601DBA94205D9C4
:104C70000C233B6000263046BDE8F0812E4E00F04C
:104C8000F5FB33681C4634BB29463846FFF7C2FFA4
:104C9000431C04464DD134682646002E40D123687B
:104CA0003146384604EB030800F036FB80453AD124
:104CB000216803356D1A25F0030508350C2D38BF22
:104CC0000C2529463846FFF7A5FF01302BD0236875
:104CD0002B4423600EE02268521B1ED40B2A16D9E7
:104CE0006119A342256018BF5960636808BF31602D
:104CF00062514B60384604F10B0600F0BDFB26F014
:104D00000706231DF21AB6D09B1BA350B3E76268B7
:104D1000A3420CBF32605A60ECE723466468B2E7F6
:104D200034467668B9E70C233B60384600F0A4FBB4
:104D3000A1E72560DEE700BF6C0500209368013B1A
:104D4000002B10B4936008DA9469A34201DB0A29AE
:104D500003D15DF8044BFFF731BC1368581C106099
:104D6000197008465DF8044B7047F8B506460F46C3
:104D70001446D518AC4201D1002007E014F8011BFD
:104D80003A463046FFF7DAFF431CF3D1F8BD000086
:104D90002DE9F04F0D469DB014469846064618B1D1
:104DA00083690BB9FFF7E4FD894B9D421BD1756800
:104DB0006B6ED90705D4AB899A0502D4A86DFFF7AD
:104DC00075FEAB891B0701D52B69EBB92946304627
:104DD000FFF746FCC0B16B6EDC070ED54FF0FF301D
:104DE0001DB0BDE8F08F7B4B9D4201D1B568DFE778
:104DF000794B9D4208BFF568DAE7AB899805EDD499
:104E0000A86DFFF754FEE9E70023099320238DF8EE
:104E10002930CDF80C803023DFF8C0818DF82A309E
:104E20004FF0010923469A4613F8012B0AB1252AAF
:104E3000F9D1BAEB040B0BD05B462246294630462B
:104E4000FFF793FF013000F0AA80099A5A440992B3
:104E50009AF80030002B00F0A28000234FF0FF32C0
:104E6000CDE905230AF1010A049307938DF8533025
:104E70001A935446052214F8011B5848FBF7A8F969
:104E8000049AD8B9D10644BF20238DF853301307B4
:104E900044BF2B238DF853309AF800302A2B15D0BD
:104EA000079A544600204FF00A0C214611F8013BA6
:104EB000303B092B4ED9B0B1079214E0A0EB0803A8
:104EC00009FA03F313430493A246D2E7039B191D87
:104ED0001B680391002BBBBF5B4242F002020793A9
:104EE0000793B8BF049223782E2B0CD163782A2B1A
:104EF00035D1039B1A1D1B680392002BB8BF4FF0DE
:104F0000FF3302340593DFF8E4A0217803225046F2
:104F1000FBF75EF940B14023A0EB0A0003FA00F072
:104F2000049B03430134049314F8011B2C488DF8AF
:104F300028100622FBF74CF900283FD0294B1BBB59
:104F4000039B073323F0070308330393099B3B4478
:104F5000099367E70CFB02320C460120A5E700230A
:104F60000134059319464FF00A0C204610F8012B26
:104F7000303A092A03D9002BC5D00591C3E70CFBB1
:104F8000012104460123F0E703AB00932A46164BA8
:104F900004A93046AFF300800746781CD6D16B6E6B
:104FA000D90705D4AB899A0502D4A86DFFF77FFD18
:104FB000AB895B063FF512AF099811E703AB00938D
:104FC0002A46094B04A9304600F080F8E4E700BF08
:104FD000B0550008D055000890550008F05500085D
:104FE000FA550008000000006B4D0008F655000857
:104FF0002DE9F047164699468A680B69DDF820804E
:105000009342B8BF1346336091F8432007460C46DD
:105010000AB1013333602368990642BF3368023313
:105020003360256815F0060506D104F1190AE36816
:1050300032689B1AAB4226DC94F84320131E226888
:1050400018BF012392062BD404F143024946384687
:10505000C04701301ED02368E568326803F00603BC
:10506000042B08BFAD1AA36822690CBF25EAE575B9
:1050700000259342C4BF9B1AED1800261A34B5428E
:105080001AD1002008E00123524649463846C0475D
:10509000013003D14FF0FF30BDE8F0870135C6E79E
:1050A000E1185A1C302081F84300224494F845103E
:1050B00082F843100233C7E70123224649463846A7
:1050C000C0470130E6D00136D9E700002DE9FF479F
:1050D0000F7E0C9D782F914680460C469A4601F132
:1050E000430207D8622F0AD8002F00F0D880582F2B
:1050F00000F0A38004F1420584F842703AE0A7F181
:105100006303152BF6D801A151F823F0655100086F
:1051100079510008F5500008F5500008F5500008D6
:10512000F550000879510008F5500008F5500008C6
:10513000F5500008F550000885520008A9510008F4
:1051400067520008F5500008F5500008A752000803
:10515000F5500008A9510008F5500008F550000866
:105160006F5200082B681A1D1B682A6004F1420563
:1051700084F842300123A3E020682968060601F183
:1051800004030AD50E682B60002E03DA2D23764225
:1051900084F843305E480A2319E00E682B6010F053
:1051A000400F18BF36B2EFE72B682068191D296041
:1051B000010601D51E6802E04606FBD51E8854484C
:1051C0006F2F0CBF08230A23002184F84310656861
:1051D000A560002DA2BF216821F0040121600EB955
:1051E000002D4DD01546B6FBF3F103FB1167C75DEB
:1051F00005F8017D3746BB420E46F4D9082B0BD18A
:105200002368DE0708D5236961689942DEBF302331
:1052100005F8013C05F1FF35521B2261CDF800A0D5
:105220004B4603AA21464046FFF7E2FE01304CD12F
:105230004FF0FF3004B0BDE8F087354881F8457085
:105240002968236851F8046B29601D0614D5DF070F
:1052500044BF43F0200323601EB9236823F02003DA
:1052600023601023B0E7236843F0200323607823F2
:10527000284884F84530E3E7590648BFB6B2E6E768
:105280001546BBE72B6826686169181D286035063E
:105290001B6801D5196002E07006FBD51980002358
:1052A00023611546BAE72B681A1D2A601D686268DB
:1052B00000212846FAF78CFF08B1401B6060636844
:1052C0002361002384F84330A8E723692A4649462E
:1052D0004046D0470130ABD023689B0713D4E06829
:1052E000039B9842B8BF1846A4E7012332464946BB
:1052F0004046D04701309BD00135E36803995B1AE3
:10530000AB42F2DCEBE7002504F11906F5E700BF3C
:10531000015600081256000838B5064D0023044611
:1053200008462B6000F0E8F8431C02D12B6803B15B
:10533000236038BD7405002010B50C46B1F90E107D
:1053400000F0A0F80028ABBF636DA3891B1823F4FD
:105350008053ACBF6365A38110BD2DE9F0411F46AA
:105360008B89DB0505460C46164605D5B1F90E10AE
:105370000223002200F068F8A389B4F90E1023F488
:105380008053A38132463B462846BDE8F04100F0F9
:1053900017B810B50C46B1F90E1000F055F8431CC3
:1053A000A38915BF606523F4805343F48053A38120
:1053B00018BFA38110BDB1F90E1000F013B80000A2
:1053C00038B5074D04460846114600222A601A46A1
:1053D00000F0A0F8431C02D12B6803B1236038BD54
:1053E0007405002038B5064D0023044608462B609E
:1053F00000F05AF8431C02D12B6803B1236038BD7A
:105400007405002038B5074D0023044608461146B0
:105410002B6000F051F8431C02D12B6803B12360CC
:1054200038BD00BF7405002038B5064D0023044682
:1054300008462B6000F048F8431C02D12B6803B1EA
:10544000236038BD7405002038B5074D0446084672
:10545000114600222A601A4600F03EF8431C02D191
:105460002B6803B1236038BD740500200148FFF7A5
:105470001DBB00BF680500200148FFF718BB00BF37
:105480006805002038B5074D04460846114600223D
:105490002A601A4600F028F8431C02D12B6803B199
:1054A000236038BD74050020024B58221A604FF06B
:1054B000FF30704774050020024B58221A604FF0ED
:1054C000FF30704774050020024B58221A600020FC
:1054D000704700BF74050020024B58221A604FF03D
:1054E000FF30704774050020024B58221A604FF0BD
:1054F000FF30704774050020044A05491368002BEB
:1055000008BF0B4618441060184670477805002005
:1055100080050020024B58221A604FF0FF30704780
:1055200074050020F8B500BFF8BC08BC9E46704763
:0C553000F8B500BFF8BC08BC9E467047F0
:10553C0025662C2025662C2025660A0025642C2047
:10554C0025640A002D2D2D2D2D2D2D2D2D2D2D2DA0
:10555C002D2D696E69742D2D2D2D2D2D2D2D2D2D6F
:10556C002D2D2D2D0000000000000000000000007B
:10557C0001020304060708090000000001020304ED
:10558C0014000020000000000000000000000000DB
:10559C0000000000000000000000000000000000FF
:1055AC0000000000000000000000000000000000EF
:1055BC0000000000000000000000000000000000DF
:1055CC0000000000000000000000000000000000CF
:1055DC0000000000000000000000000000000000BF
:1055EC0000000000232D302B2000686C4C006566F9
:1055FC006745464700303132333435363738394118
:10560C00424344454600303132333435363738392D
:08561C00616263646566000031
:0856240068B4FF7F01000000E3
:04562C00B5010008BC
:0456300091010008DC
:10563400D007000001000000100000000024F40066
:105644001400002000000000B0550008D0550008E8
:105654009055000800000000000000000000000059
:105664000000000000000000000000000000000036
:105674000000000000000000000000000000000026
:105684000000000000000000000000000000000016
:105694000000000000000000000000000000000006
:0456A4000000000002
:04000005080043F5B7
:00000001FF
